:020000040800F2
:10000000F806002029020008ED130008CD120008B0
:10001000E9130008D5030008FD15000800000000E2
:10002000000000000000000000000000F5130008C0
:10003000B904000800000000F1130008F9130008DB
:10004000430200084302000843020008430200087C
:10005000430200084302000843020008430200086C
:10006000430200084302000843020008430200085C
:10007000430200084302000843020008430200084C
:10008000430200084302000843020008430200083C
:10009000430200084302000843020008430200082C
:1000A000430200084302000843020008430200081C
:1000B000430200084302000843020008430200080C
:1000C00043020008430200084302000843020008FC
:1000D00043020008430200084302000843020008EC
:1000E00043020008430200084302000843020008DC
:1000F00043020008430200084302000843020008CC
:1001000043020008430200084302000843020008BB
:1001100043020008430200084302000843020008AB
:10012000430200084302000843020008430200089B
:10013000430200084302000843020008430200088B
:10014000430200084302000843020008430200087B
:10015000430200084302000843020008430200086B
:10016000430200084302000843020008430200085B
:100170004302000843020008430200080000000098
:10018000430200084302000800F002F800F03CF8C7
:100190000AA090E8000C82448344AAF10107DA45E2
:1001A00001D100F031F8AFF2090EBAE80F0013F0F8
:1001B000010F18BFFB1A43F001031847C0140000D9
:1001C000E0140000103A24BF78C878C1FAD852076A
:1001D00024BF30C830C144BF04680C6070470000C1
:1001E0000023002400250026103A28BF78C1FBD840
:1001F000520728BF30C148BF0B6070471FB501F0E0
:1002000028FA1FBD10B510BD00F0A9F81146FFF780
:10021000F5FF01F0F5F900F0C7F803B4FFF7F2FFBE
:1002200003BC00F0CFF800000948804709480047A8
:10023000FEE7FEE7FEE7FEE7FEE7FEE7FEE7FEE796
:10024000FEE7FEE704480549054A064B70470000F3
:10025000A514000889010008F8000020F806002015
:10026000F8020020F802002053EA020C00F0698036
:100270002DE9F04B4FF00006002B1FBFB3FA83F5BA
:1002800003FA05F424FA05F65E4012BF1643B2FAEB
:1002900082F502FA05F4C5F120051EBF22FA05FC1D
:1002A00044EA0C04203556EA044C4FEA144418BFC3
:1002B000641C4FF000084FF00009904271EB030CF2
:1002C00039D3002919BFB1FA81F701FA07F6B0FA5C
:1002D00080F700FA07F6C7F120071EBF20FA07FCD7
:1002E00046EA0C062037B6FBF4FCA7EB0507103FE7
:1002F00007F01F0BCBF120062CFA06F60CFA0BFBCD
:1003000044BFB3460026202FA4BF5E464FF0000B2B
:100310005BEA060C08BF4FF0010B19EB0B0948EB29
:100320000608ABFB027C06FB02CC0BFB03CCC01B1C
:1003300071EB0C01C1E70B46024641464846BDE859
:10034000F08B13B5084318BF4FF0FF300146AFF3F1
:100350000080BDE81C407047704770477047754685
:1003600000F02CF8AE4605006946534620F0070021
:10037000854618B020B5FFF765FFBDE820404FF077
:1003800000064FF000074FF000084FF0000BAC469E
:10039000ACE8C009ACE8C009ACE8C009ACE8C009E9
:1003A00021F007018D46704710B50446AFF3008079
:1003B0002046BDE81040FFF730BF000000487047FE
:1003C0001000002001491820ABBEFEE72600020005
:1003D00070470000FEE7000010B540F27001C2F265
:1003E00000018968A1FB00EC5EEA0C0008BF10BDAB
:1003F00041F20402CEF2000207E000BFBEEB000EA5
:100400006CEB030C5EEA0C0022D0BEF1FF307CF1F5
:1004100000004FF00003704638BF0123002B08BFD7
:100420004FF0FF30116818BF634600BF1468641AAC
:100430008442E3D21468641A8442DFD21468641AD6
:100440008442DBD21468641A8442EFD3D6E700BF3B
:1004500010BD000010B54EF6FC5CCEF2000CDCF8CE
:10046000002044F24023C0F20F0342F08072584350
:1004700044F6D353CCF8002041F20002C1F26203EB
:10048000CEF200024FF0000CA0FB033EC2F804C005
:100490004DF683611368C4F21B31A0FB011443F0D5
:1004A0000101116040F27001C2F200014FEA9E1298
:1004B000A30C81E80D1010BD7047000072B600BF9C
:1004C000FEE700002DE9F04716468846814692B1C6
:1004D000B9FBF6F740F2980A0025C2F2000A34464A
:1004E00005FB07F350460021002200F0A7F8013C6D
:1004F00005F10105F4D140F29800C2F2000000219C
:1005000000224B4600F09AF844F240214FEA48009E
:10051000C0F20F01B1FBF0F0FFF75EFF002E08BF45
:10052000BDE8F087B9FBF6F440F29805771CC2F2FB
:10053000000500BF04FB06F328460021002200F05E
:100540007DF8013F012FA6F10106F3DCBDE8F0873D
:1005500010B500284FF0010318BF002902D118463A
:1005600010BD00BF4379012B4FF00203F7D0037198
:10057000036802F0100ED3F800C0D1E9004140F644
:10058000FE7202FA0EF221432CEA020201FA0EF187
:1005900011431960C0211A6801FA0EF122EA010123
:1005A00019600121002301714371184610BD00003C
:1005B000002804BF0120704710B50446007920B917
:1005C00000206071204600F007F802202071002012
:1005D00001212061217110BD80B586B047F2004134
:1005E0000068C4F20001002288420592049201D002
:1005F00006B080BD43F630000092C4F202000369E9
:1006000043F000530361036903F000530093009B20
:100610000092036843F001030360006800F00100EA
:1006200000900098102001900320CDE9020201F50E
:10063000C63001A900F048F806B080BD81B04FF087
:10064000000CCDF800C068B1006800290090009847
:10065000104414BF1430083000900098036000204C
:1006600001B07047012001B07047000010B5D8B14B
:100670004279012A4FF0020224D00271026801F08F
:10068000100E4FF0010C14680CFA0EF323431360A4
:10069000D2F800C051B13C230CF4701103FA0EF3F0
:1006A00099420BD1022106E0012010BD0CF03C0163
:1006B0003C2903D1012153681943516001210022D3
:1006C00001714271104610BD2DE9F04F82B000F16A
:1006D0003E4241F6004502F1FF77C4F202050822CE
:1006E0004FEAB726A84208BF0722072E38BF4FEAB5
:1006F000B7224FF0010A002400274FF000080092B3
:1007000008E000BF023708F10108202F04F10404BB
:1007100000F0B4800E680AFA08F916EA090FF1D061
:10072000D1F804A00AF0030BABF10106012E17D893
:100730000322866802FA07FECA6826EA0E06BA4055
:10074000324382604268CAF3001522EA090205FAC0
:1007500008F54FEA480C6FEA0E062A4342600BE0A8
:100760000322BA40D643BBF1030FBC4604D1BC46BA
:100770004FF0030B22E000BFC2688D68324005FADB
:100780000CF52A43BBF1020FC26017D16FF00302D0
:1007900002EA5802024404F01C030F25D2F820E0BC
:1007A00005FA03FA0D692EEA0A0E05FA03F343EA85
:1007B0000E031362D1F804A00AF0030B02680BFACF
:1007C0000CF332401A431AF4403F4FF0010A026022
:1007D00098D0002243F644030192C4F202031A683F
:1007E00043F6004E42F480421A601A68C4F2010EC9
:1007F00002F480420192019A28F003024FF6084C5D
:100800007244CFF6FF7C52F80C3004F00C060F2532
:10081000B540AB43009D05FA06F6334342F80C3071
:10082000DEF808204B6842EA090643F60C4CDD026C
:1008300058BF22EA0906CEF80860C4F2010CDCF8C1
:1008400000209D0242EA090658BF22EA0906CCF8B8
:100850000060DEF804209D0342EA090658BF22EA40
:100860000906CEF80460DEF80020DB0342EA090640
:1008700058BF22EA0906CEF8006043E702B0BDE89F
:10088000F08F0000426902EA0103914341EA03410B
:1008900081617047002A08BF090481617047000028
:1008A00040F2F400C2F200000068704740F200001D
:1008B00040F2F401C2F20000C2F2000100780A68BE
:1008C000104408607047000080B543F60040C4F251
:1008D0000200016841F400710160016841F4806127
:1008E0000160016841F480710160032000F074F838
:1008F0000F2000F005F800F027F8002080BD000070
:1009000070B540F20006C2F2000640F208013278EB
:10091000C2F200014FF47A730968B3FBF2F20446A5
:10092000B1FBF2F1084600F0F7FA0F2C4FF0010589
:1009300008D838B94FF0FF3021460022002500F0DA
:100940001FF87460284670BD82B0002043F6400155
:100950000190C4F202014A6842F480424A604A6847
:1009600002F480420192019A0090086840F08050A1
:100970000860086800F080500090009802B070474E
:1009800010B54EF60C5CCEF2000CDCF80030C3F370
:10099000022E8EF00704042C28BF0424BEF10303AA
:1009A0004FF0FF3E0EFA04F438BF0023A1439940F4
:1009B0000EFA03F39A43114300F00F02043A624423
:1009C00009010C3200F16043B0F1FF3FC8BF03F5ED
:1009D0006442117010BD00004EF60C51CEF20001C1
:1009E0000A684FF6FF031A4060F30A2242F0806063
:1009F00040F0FD70086070472DE9F041002800F0DC
:100A00008B8043F60808C4F202080446D8F8F803BD
:100A10000D4600F00700884207D288F8F853D8F84E
:100A2000F80300F00700A84276D12068810717D5A7
:100A3000410705D5D8F8001041F4E051C8F800107E
:100A4000010705D5D8F8001041F46041C8F800103E
:100A5000D8F80010A26821F0F0011143C8F8001086
:100A6000C0073FD1D8F8F80300F00700A84207D923
:100A700088F8F853D8F8F80300F00700A8424BD1E3
:100A80002068410707D5D8F80010E26821F4E0514A
:100A90001143C8F80010000708D5D8F800002169F4
:100AA00020F4604040EAC100C8F8000000F054F8AB
:100AB000D8F8001041F26C62C1F30311C0F60002D5
:100AC000515C40F2080220FA01F140F20400C2F247
:100AD00000000068C2F200021160FFF711FF002061
:100AE000BDE8F0816068811E022907D258F8081C11
:100AF00089015CBF0120BDE8F08111E0012807D128
:100B000058F8081C89035CBF0120BDE8F08107E0AC
:100B100058F8081C890703D40120BDE8F08100BF04
:100B2000D8F8001021F003010843C8F80000FFF7CF
:100B3000B7FE064641F28837D8F80000616800F039
:100B40000C00B0EB810F8DD0FFF7AAFE801BB842DE
:100B5000F2D90320BDE8F08110B543F60404C4F2D5
:100B60000204606800F00C00082842F20040C0F265
:100B7000F40018BF10BD21682268236801F03F020D
:100B8000C3F38811A1FB00010023FFF76DFB21686F
:100B90000222C1F3014102EB4101B0FBF1F010BDB3
:100BA0002DE9F04182B000286AD00446007843F66F
:100BB0000006C007C4F202060BD0B06800F00C00BB
:100BC000042840F0A1803068800302D560680028C6
:100BD00056D0207880071AD5B06810F00C0F09D0D5
:100BE000B06800F00C00082840F0A880706840024F
:100BF00000F1A4803068800702D5E06801283FD169
:100C00003068216920F0F80040EAC10030602078A7
:100C1000000739D4207840074ED4A5695DB3B06889
:100C200000F00C00082840F0BD80012D28D070682D
:100C3000E16900F480028A4222D1216A00F03F0279
:100C40008A421DD147F6C071626A0140B1EB821F32
:100C500016D1A26A0023CFF6FF7303EBC23200F471
:100C600040316FF30F0291420AD1E16A00F07060E7
:100C7000B0EB016F04D1002002B0BDE8F08100BFED
:100C8000012002B0BDE8F0816069002840F2000058
:100C9000C4F2472076D00121C0F8801EFFF700FE85
:100CA000054600BF706F8007B4D4FFF7F9FD401B05
:100CB0000228F7D9DDE000BF306C10F080580AD16F
:100CC00000200190306C40F080503064306C00F0B7
:100CD00080500190019847F20007C4F2000738687D
:100CE000C00541D4386840F480703860FFF7D8FD03
:100CF000054600BF3868C00536D4FFF7D1FD401B5C
:100D00000228F7D9B5E000BFB06800F00C00082851
:100D100003D1706840023FF556AF6068B0F5803F80
:100D200007D0B0F5A02F40F08D80306840F48020CF
:100D30003060306840F4803030608DE0E06800283A
:100D400052D00020C4F2472001210160FFF7A8FD26
:100D5000054600BF306880073FF552AFFFF7A0FDA2
:100D6000401B0228F6D984E0A068012805D0052898
:100D70004ED1306F40F004003067306F40F001001A
:100D800030674FE00021C0F8801EFFF789FD05465F
:100D9000706F80077FF53EAFFFF782FD401B022892
:100DA000F6D966E00027C4F2472700203866FFF72F
:100DB00077FD022D05460BD1306880015ED5FFF727
:100DC0006FFD401B02284FF00300F5D954E700BF28
:100DD000306880017FF54FAFFFF762FD401B0228AE
:100DE0004FF00300F4D947E70020C4F24720002168
:100DF0000160FFF755FD0546306880077FF507AFB6
:100E0000FFF74EFD401B02284FF00300F4D933E7F3
:100E1000316F002821F001013167316F21F00401A9
:100E200031674DD0FFF73CFD054641F2883700BFE2
:100E3000306F800756D4FFF733FD401BB842F7D917
:100E400017E000BF3168002821F48031316031683B
:100E500021F4802131604FD0FFF722FD054600BF0D
:100E6000306880033FF5B5AEFFF71AFD401B6428DC
:100E7000F6D9032002B0BDE8F08100BF04F11C05E3
:100E80002FCD08430021CFF6FF7140EA821001EB1D
:100E9000C3316FF30F0140EA056008437060012021
:100EA0003866FFF7FDFC0446306880013FF5E3AE8D
:100EB000FFF7F6FC001B02284FF00300F4D9DBE635
:100EC000FFF7EEFC054641F2883700BF306F800720
:100ED00008D5FFF7E5FC401BB8424FF00300F5D9F9
:100EE000CAE600BFB8F1000F7FF497AE306C20F077
:100EF0008050306491E600BFFFF7D2FC054600BF8A
:100F0000306880037FF565AEFFF7CAFC401B64289C
:100F10004FF00300F4D9AFE6411E0020B0EB116F93
:100F20001CBF012070474EF21002CEF20002516049
:100F30004EF62351CEF20001F0230B700721906092
:100F40001160704710B590F83C20012A4FF0020262
:100F500051D080F83D200268D2F804E0D2F808C0F1
:100F60000C682EF07003234341F2FF74C4F20004B6
:100F7000A24253600EDC40F2FF73C4F200039A42B7
:100F800016DCB2F1804F2BD040F20043C4F20003D4
:100F900024E000BF40F2FF33C4F201039A4213DCA5
:100FA00041F60003C4F200039A4219D0002313E073
:100FB00040F60003C4F200039A4211D040F6004309
:100FC000C4F200030AE000BF44F20003C4F20103CC
:100FD0009A4205D040F20043C4F201039A4204D180
:100FE00049682CF08003194391600121002280F8A8
:100FF0003D1080F83C20104610BD0000002804BFC2
:101000000120704710B5044690F83D0028B9002033
:1010100084F83C00204600F01FF8022084F83D00D0
:101020002068211D00F048FA012084F8460084F869
:101030003E0084F83F0084F8400084F8410084F8C2
:10104000420084F8430084F8440084F8450084F8A2
:101050003D00002010BD000081B00068B0F1804F5D
:1010600002D001B0704700BF0020009043F640005E
:10107000C4F20200016841F001010160006800F063
:1010800001000090009801B07047000090F83D10FA
:1010900001291CBF01207047022180F83D10006823
:1010A00041F2FF71C4F2000188420DDC40F2FF7191
:1010B000C4F20001884215DCB0F1804F2AD040F222
:1010C0000041C4F2000123E040F2FF31C4F201010B
:1010D000884213DC41F60001C4F20001884219D0B5
:1010E000002113E040F60001C4F20001884211D053
:1010F00040F60041C4F200010AE000BF44F20001E2
:10110000C4F20101884205D040F20041C4F201015D
:10111000884206D1816801F00701062904BF00203A
:101120007047016841F00101016000207047000034
:1011300080B590F83C20012A4FF0020200F0C280F6
:1011400080F83D20D0F800C04FF67772DCF8083008
:1011500023EA0202CCF808200B684F2B28DC1F2B57
:1011600044DD202B45D0302B43D0402B40F0AC80C9
:10117000D1F804E0C968DCF82030DCF8202022F047
:101180000102CCF82020DCF8182022F0F00242EA1C
:10119000011123F00A0242EA0E02CCF81810CCF832
:1011A0002020DCF8081041F0470121F0300180E0F8
:1011B0006F2B27DDB3F5005F48D0B3F5805F7AD0A1
:1011C000702B40F08180D1E901E3C968DCF8082088
:1011D00043EA0E0322F47F4243EA01211143CCF893
:1011E0000810DCF8081041F0770162E00BB1102B19
:1011F0006AD1DCF8081021F07001194341F00701B1
:1012000057E000BF502B35D0602B5DD1D1F804E002
:10121000C968DCF82030DCF8202022F01002CCF87D
:101220002020DCF8182022F4704242EA013123F039
:10123000A00242EA0E12CCF81810CCF82020DCF8FC
:10124000081041F0670121F0100132E0D1E901E31B
:10125000C968DCF8082043EA0E0322F47F4243EA1F
:1012600001211143CCF80810DCF8081041F480414A
:101270001FE000BFD1F804E0C968DCF82030DCF8DA
:10128000202022F00102CCF82020DCF8182022F0E7
:10129000F00242EA011123F00A0242EA0E02CCF8FF
:1012A0001810CCF82020DCF8081041F0570121F08C
:1012B0002001CCF808100022012180F83D10002107
:1012C00080F83C10104680BD0122F5E7FEE70000E3
:1012D00080B582B0002001902420009040F2980058
:1012E00047F20041C2F20000C4F200010160FFF7C2
:1012F0005FF9002818BFFFF7E1F840F29800C2F24A
:10130000000069460022FFF723F9002818BFFFF705
:10131000D5F802B080BD000070B586B0002543F658
:10132000300005950095C4F202000168002441F0E8
:10133000800101600168C4F2020401F080010091A3
:10134000009900950168002241F0010101600068E8
:10135000C02100F00100009000982046C026FFF751
:1013600099FA0120CDE9020501A9204601960495CC
:10137000FFF7AAF906B070BD80B586B020200090B6
:1013800040F2AC000021C2F200004FF08042A723DF
:101390000591CDE903110191C0E90021C0E90213D3
:1013A000016180218161FFF729FE002818BFFFF746
:1013B00085F84FF48050029040F2AC00C2F2000079
:1013C00002A9FFF7B5FE002818BFFFF777F840F233
:1013D000AC00C2F200006946FFF7B4FD002818BF58
:1013E000FFF76CF806B080BDFEE70000FEE70000E6
:1013F0007047000070470000FFF758BAB0B592B0D0
:10140000002443F64000CDE90A44CDE908440594A0
:10141000CDE90344CDE901440094C4F2020001681F
:10142000022541F080510160006800F0805000907A
:10143000009847F200000094C4F20000016841F4F3
:1014400080410160006800F4804000900098012015
:1014500006904FF4803007904FF480000D900820E4
:101460000E90A820CDE90F050420119006A80C9538
:10147000FFF796FB10B172B6FEE700BF0F20CDE973
:1014800001054FF4A05004904FF48050059001A83E
:1014900005210394FFF7B0FA10B172B6FEE700BF62
:1014A00012B0B0BD4EF68850CEF20000016841F493
:1014B0007001016070470000B0B540F6FF3E05685E
:1014C000C4F2000E40F2004C7045C4F2010C27DC5F
:1014D000B0F1804F31D040F20043C4F20003984293
:1014E0002BD040F60003C4F20003984225D041F609
:1014F000FF73C4F2000398422ADC70453CDCB0F173
:10150000804F5FD040F20043C4F20003984259D0AC
:1015100040F60003C4F20003984253D057E000BFE6
:1015200040F60043C4F20003984206D0604504D060
:101530000023C4F201039842D9D14B6825F0700210
:1015400043EA020541F6FF73C4F200039842D4DD7A
:1015500043F6FF73C4F20103984221DC42F2000318
:10156000C4F2000398422DD00023C4F20103984234
:1015700028D0604526D02AE040F60043C4F200039C
:1015800098421FD041F60003C4F20003984219D0DC
:1015900041F60043C4F20003984213D017E000BFA5
:1015A00044F20003C4F2010398420BD044F6000356
:1015B000C4F20103984205D044F20043C4F201038F
:1015C000984204D1CB6825F4407243EA02050A68C8
:1015D0008C684B69C46240F480648262644504BFD5
:1015E00009690163026825F0800142F00402194391
:1015F0000260012242610160B0BD0000FEE7000010
:10160000FFF762F9FFF7FAFEFFF786FEFFF7B4FE79
:10161000FFF75EFEA820FEF71DFF40F2AC00C2F20D
:101620000000FFF733FD40F29800C2F200000021F5
:10163000FFF71CF80024C4F2020400BF20468021FA
:10164000FFF720F940F6FF7001216422FEF73AFF10
:10165000F4E7F1EE100A4FF6FF71C0F2C03120EA54
:10166000010040F04070E1EE100A704700000000F9
:10167000000000000102030406070809A016000884
:101680000000002010000000C4010008B01600088F
:1016900010000020E8060000E00100080000000043
:1016A00001000000100000000024F4000000000011
:040000050800018965
:00000001FF
