:020000040800F2
:10000000E010002089010008F92F0008C12B00082A
:10001000F52F0008590400087133000800000000A3
:100020000000000000000000000000000130000897
:100030002D05000800000000FD2F00080530000815
:10004000A3010008A3010008A3010008A301000800
:10005000A3010008A3010008A3010008A3010008F0
:10006000A3010008A3010008A30100085D04000823
:10007000A3010008A3010008A3010008A3010008D0
:10008000A30100086904000821030008A301000877
:10009000A3010008A3010008A3010008A3010008B0
:1000A000A30100080D300008A3010008A301000807
:1000B00019300008A3010008A3010008A3010008EB
:1000C000A3010008A3010008A3010008A301000880
:1000D000A3010008A301000865330008A30100087C
:1000E00031050008A3010008A301000800F002F890
:1000F00000F03AF80AA090E8000C82448344AAF188
:100100000107DA4501D100F02FF8AFF2090EBAE885
:100110000F0013F0010F18BFFB1A43F0010318473B
:10012000CC3F0000EC3F0000103A24BF78C878C1F3
:10013000FAD8520724BF30C830C144BF04680C60ED
:10014000704700000023002400250026103A28BF35
:1001500078C1FBD8520728BF30C148BF0B60704739
:100160001FB51FBD10B510BD00F0A0F81146FFF778
:10017000F7FF03F08DFA00F0BEF803B4FFF7F2FFCB
:1001800003BC00F0C5F80000094880470948004753
:10019000FEE7FEE7FEE7FEE7FEE7FEE7FEE7FEE737
:1001A000FEE7FEE704480549054A064B7047000094
:1001B00009300008ED000008E00A0020E0100020EF
:1001C000E00C0020E00C0020431A28BF9A4240F2C5
:1001D0003B801044114410F0030F1EBF11F8013D85
:1001E000521E00F8013D10F0030F7FF4F6AF103AF5
:1001F000C0F00A8010B531E9185020E91850103AC3
:10020000BFF4F9AFBDE81040530724BF31E908102F
:1002100020E9081044BF51F8043D40F8043D12F0B5
:10022000030F08BF7047D20728BF31F8023D48BF0F
:1002300011F8012C28BF20F8023D48BF00F8012C1E
:10024000704770477047704710B5203AC0F00B8078
:10025000B1E81850A0E81850B1E81850A0E81850BC
:10026000203ABFF4F5AF5FEA027C24BFB1E8185032
:10027000A0E8185044BF18C918C0BDE810405FEA94
:10028000827C24BF51F8043B40F8043B08BF704710
:10029000D20728BF31F8023B48BF11F8012B28BF15
:1002A00020F8023B48BF00F8012B7047754600F06C
:1002B0002BF8AE4605006946534620F007008546F8
:1002C00018B020B5FFF76EFFBDE820404FF00006E4
:1002D0004FF000074FF000084FF0000BAC46ACE8C1
:1002E000C009ACE8C009ACE8C009ACE8C00921F01D
:1002F00007018D46704710B50446AFF300802046D5
:10030000BDE81040FFF739BF0048704710000020DB
:1003100001491820ABBEFEE726000200704700002E
:1003200040F64810C2F2000000F0DEB90146406A13
:10033000826A12F0500F03D0006A026B0846104721
:100340000168826A42F400728262896801F4602165
:10035000B1F5602F01D1017B11B100F0BFB900BF31
:10036000816A21F480718162816AC90448BF00F00A
:10037000B5B9816A41F00101816200F0AFB90000B6
:10038000406A816A41F040018162C16A41F0040122
:10039000C16200F0A7B90000406A00F0A1B90000F6
:1003A000B0B582B004460020019021688A68D20767
:1003B0004FD1886840F00100886040F20800C2F226
:1003C000000000684DF68361C4F21B31A0FB0101FF
:1003D000880C01900198A0B1019801380190019812
:1003E00078B1019801380190019850B10198013815
:1003F0000190019828B101980138019001980028D6
:10040000EAD100F083FE21688968C9071CD105463E
:1004100003E000BF8068C0071AD100F077FE411BDF
:1004200020680329F6D38168C907F3D1A06A40F098
:100430001000A062E06A40F00100E062002084F851
:100440002400012002B0B0BD002002B0B0BD00BF4A
:10045000002002B0B0BD0000FEE7000040F67810BA
:10046000C2F2000000F0CABB40F6BC10C2F20000AD
:1004700000F0C4BB70B582B041F20403CEF20003B9
:10048000196840F288060091C2F2000600990268DD
:100490003468009D0560186801900198336998429E
:1004A00002D2F0680130F060881A03F029FD054699
:1004B000204603F025FD0146284603F05FFC019924
:1004C000316102B070BD000010B54EF6FC5CCEF29A
:1004D000000CDCF8002044F24023C0F20F0342F08D
:1004E0008072584344F6D353CCF8002041F2000206
:1004F000C1F26203CEF200024FF0000CA0FB033EFB
:10050000C2F804C04DF683611368C4F21B31A0FB2E
:10051000011443F00101116040F28801C2F20001B0
:100520004FEA9E12A30C81E80D1010BD7047000029
:100530004FF4006000F0C6BCEFF3108072B600BF4D
:10054000FEE700007047000010B581B00022009265
:1005500090F82420012A03D10221084601B010BDE1
:100560004B680122062B80F8242015D8026803EB83
:100570008303A3F1050E1F23D2F834C003FA0EF44F
:100580000B682CEA040C03FA0EF444EA0C045463DE
:10059000092B17D937E000BF02680C2B20D803EBDA
:1005A0008303A3F123041F23D2F830C003FA04FE0F
:1005B0000B682CEA0E0C03FA04F444EA0C041463EE
:1005C000092B20D8D2F810C003EB43030724896815
:1005D0009C402CEA0404994021431161002136E03B
:1005E00003EB8303A3F141041F23D2F82CC003FAC9
:1005F00004FE0B682CEA0E0C03FA04F444EA0C0423
:10060000D462092BDED903EB4304D2F80CC0A4F169
:100610001E0E0724896804FA0EF42CEA040401FA79
:100620000EF1214323F00104102CD1600ED142F2CF
:100630000841C4F20101A1F10804A2420ED0816A6E
:1006400041F020018162012101E000BF0021002270
:1006500080F82420084601B010BD00BF0A681202CD
:1006600030D40A68102B42F400020A602CD140F208
:100670000801C2F2000109684DF68362C4F21B3220
:10068000A1FB0212910C01EB81014900009100993C
:10069000E1B10099013900910099C9B1009901397E
:1006A00000910099B1B1009901390091009999B177
:1006B000009901390091009900294FF00001E8D11B
:1006C000C5E700BF0021C2E70021C0E70021BEE767
:1006D0000021BCE70021BAE70021B8E7704700001D
:1006E000704700007047000070B504460068056858
:1006F0004668B10627D515F0020124D0A16AC906C3
:1007000003D4A16A41F40071A162816801F46021FF
:10071000B1F5602F10D1217B71B9416821F0200122
:100720004160A06A20F48070A062A06AC00403D473
:10073000A06A40F00100A0622046FFF7CFFF2068CA
:100740006FF012010160310633D515F0040130D08D
:10075000A16AC90603D4A16A41F40051A16281686B
:1007600001F4E041B1F5E04F10D1416821F0800182
:100770004160A06A20F48050A062A06AC00511D434
:10078000A06A40F00100A0620CE000BF416849058A
:1007900008D4816801F46021B1F5602F02D1217B7A
:1007A0000029E2D02046FFF7CDFE20686FF00C0153
:1007B000016070060ED515F0010008BF70BDA06A7B
:1007C00040F48030A062204600F0B4F820686FF05A
:1007D0000101016070BD0000B0B5002800F0A880E4
:1007E0000446806A20B121688868C0070BD114E0F4
:1007F0000020E06284F82400204600F09DF8216883
:100800008868C00709D0886820F00100886000F07F
:100810007DFC21688A68D20726D1A06AC0063AD436
:10082000A06A41F2021290430230A062E069D4E96A
:10083000013240EA030C531EB3FA83F35D091346F9
:10084000B2F5807F18BF2B02207D257B01284CEA62
:10085000450030D135B3A56A45F02005A562E56AAB
:1008600045F00105E56226E0054602E08868C0071C
:10087000D3D000F04BFC401B21680328F6D38868D6
:10088000C007F3D0A06A40F01000A062E06A40F018
:100890000100E062A06AA06A40F01000A06201209E
:1008A000B0BD00BFD4F818C04EF60005CFF6FF75F6
:1008B00005EB4C352B434D68B2F5807F25F4694537
:1008C00043EA05034B608B684FF2FD75CFF6E17587
:1008D00003EA050343EA00038B6001D0012A07D134
:1008E00022690023CFF6F07303EB025201E000BF50
:1008F0000022CB6A23F470031A43CA62896840F667
:10090000FE62CFF61F721140814207D10020E062E3
:10091000A16A012262F30101A162B0BDA06A40F0A8
:10092000100020F00200A062E06A40F00100E062E6
:100930000120B0BD7047000070B586B0044640F697
:100940000000C4F20100216800F5E0520026914247
:100950000596049602D006B070BD00BF41F21801A2
:10096000C4F202010A6842F400720A600A6802F4E2
:1009700000720192019A0A6842F004020A60096852
:1009800001F00401019101990121029103210391D8
:1009900002A900F0A3FA40F678150820C2F200057B
:1009A000C4F202004FF48072C5E9000605F11000A0
:1009B00080214FF480634FF4005C80E84C1028469F
:1009C000C5E9026100F0EAF9002818BFFFF7B4FD9D
:1009D00012200021002225626C6200F015FC12201A
:1009E00000F002FC06B070BD70B515460446006804
:1009F00042F60002C4F2010290420E4605D042F2D5
:100A00000041C4F20101884209D142F20440C4F21B
:100A10000100006810F4702F1CBF012070BD94F815
:100A20002400012804BF022070BD012084F82400A6
:100A30002046FFF7B5FC18B1002184F8241070BDE2
:100A400042F204402168A26AC4F2010040F6017338
:100A50009A4300F57F7302F580729942A26243D0F7
:100A6000A06A20F48010A0624868400504D5A06AFE
:100A7000012262F30D30A062A26A0020D2044FF07E
:100A8000000244BFE26A22F00602E26284F8240017
:100A9000206A40F22D32C0F6000240F2993340F253
:100AA000813C00F1280EC0F60003C0F6000C8EE871
:100AB0000C106FF002020A608A682B4642F48072C2
:100AC0008A604C31324600F0ADF92068816801F44B
:100AD00060228168B2F5602F0CBF41F4A00141F49F
:100AE00080118160002070BD026812F4702FB7D0B1
:100AF000A26A42F48012A26200684005BCD5B6E743
:100B0000014690F82100022816D10868D1E90FC3E8
:100B1000026822F00E020260026822F00102026006
:100B2000012000FA03F2CCF8042081F82100002013
:100B3000002281F8202070470420886301200022D1
:100B400081F820207047000080B590F8211002291C
:100B500024D10268116821F00E0111602F21136861
:100B6000C4F202018A4240F20401C4F2020123F0FD
:100B70000103136016DD3023C4F202039A421DD034
:100B80004423C4F202039A421CD05823C4F2020345
:100B90009A421DD14FF4803322E000BF04218163CB
:100BA000012080BD0823C4F202039A420ED01C2308
:100BB000C4F202039A420BD1102311E04FF4807368
:100BC0000EE000BF4FF480530AE000BF012307E0AE
:100BD00001F1680C4FF08073624508BF4FF4801339
:100BE0000B60012180F82110426B002180F8201059
:100BF0000AB190470021084680BD000010B5D0E939
:100C00000FCE0168DCF800300A6823FA0EF35C07A7
:100C10002AD512F0040427D00A68920603D40A6881
:100C200022F004020A602F22C4F20202914240F232
:100C30000402C4F202025BDD3023C4F202039942D3
:100C400072D04423C4F20203994273D05823C4F2F1
:100C50000203994240F07A804FF480231360C16A06
:100C6000002940F098806FE09C0727D512F002041D
:100C700024D00A68920606D40A6822F00A020A60A2
:100C8000012280F821202F22C4F20202914240F278
:100C90000402C4F202023BDD3023C4F20203994293
:100CA00060D04423C4F2020399425FD05823C4F2B7
:100CB0000203994260D14FF4003365E01B0743D52E
:100CC00012F0080208BF10BD0A6822F00E020A6086
:100CD000012101FA0EF2CCF80420816380F8211082
:100CE000016B0022002980F8202054D12CE000BFA5
:100CF0000823C4F20203994222D01C23C4F2020347
:100D0000994223D140231360C16A002943D11BE0DB
:100D10000823C4F2020399422CD01C23C4F202031C
:100D2000994229D120232FE04FF480631360C16AD8
:100D300089BB09E04FF480431360C16A59BB03E0EB
:100D400004231360C16A31BB10BD00BF02F1680407
:100D50004FF08063A14208BF4FF480031360C16A63
:100D6000C9B9F1E74FF400730EE000BF4FF4005330
:100D70000AE000BF022307E002F168044FF00073AD
:100D8000A14208BF4FF400131360816A00220029BA
:100D900080F82020D8D0BDE8104008470146002840
:100DA0004FF0010008BF70472DE9F043D1F800C0B3
:100DB0004FF6F873CBF6FD734CF6CD426344CCF698
:100DC000CC42A3FB02236FF0030707EA930300273B
:100DD000C4F2020701F10C09C1E90F730223D1E942
:100DE000012E99E87002D1F81C8081F82130DCF8DE
:100DF000003043F6F077BB431A4342EA0E02224327
:100E00002A43324342EA090242EA0802CCF80020AF
:100E100000228A6381F8210081F820200020BDE8AB
:100E2000F0437047F0B590F820C0BCF1010F32D00C
:100E30004FF0010E80F820E090F821C0BCF1010FC6
:100E400026D14FF0020C80F821C04FF0000CC0F802
:100E500038C0D0E900C4C56AC66BDCF80070102C3D
:100E600027F00107CCF80070006C0EFA00F07060FB
:100E70000846CCF8043004BF10460A46CCF80800F7
:100E8000CCF80C20DCF8000045B140F00E000DE07D
:100E9000002180F820100220F0BD00BF20F00400E7
:100EA000CCF80000DCF8000040F00A00CCF80000AC
:100EB000DCF8000040F00100CCF800000020F0BD9C
:100EC0007047000040F21441C4F201010A68024276
:100ED00014BF08607047FFF7F3BF00002DE9F04F23
:100EE00082B041F20042C4F201020E680423904233
:100EF00008BF0323002E009300F0F68040F2004C60
:100F00004FF6FF7E0022C4F2010C0124C1F2100E44
:100F10004FF0000A4FF0000947E000BF012502F042
:100F20000C040F27A7402BEA070705FA04F43C43FB
:100F300043F82640D1F804B040F20C455FEACB23D9
:100F4000DCF8083054BF23EA080343EA0803C4F27C
:100F50000105CCF808302B685FEA8B2454BF23EAE4
:100F6000080343EA08032B605FEA8B34DCF80430A3
:100F700054BF23EA080343EA08035FEACB34CCF802
:100F80000430DCF800304FF0010454BF23EA0803BA
:100F900043EA0803CCF800300E680AF1010A36FA79
:100FA0000AF302F1040200F09F8004FA0AF816EA3C
:100FB000080FF1D04B68734512DC122B56D8DFE8CE
:100FC00003F0350B4549555555555555555555550E
:100FD0005555554D510000BFD1F80C9046E000BF6B
:100FE0004FF6FF75C1F22105AB420FDC0025C1F2BF
:100FF0001105AB421AD00025C1F21205AB4215D043
:101000000025C1F22105AB4210D02FE00025C1F22E
:101010002205AB420AD00025C1F23105AB4205D012
:101020000025C1F23205AB4220D100BF8B684BB125
:10103000012B14BFC0F81480C0F810804FF00809CD
:1010400014E000BF4FF0040910E000BFCB6803F1CB
:1010500008090BE04FF0000908E000BFCB6803F17E
:10106000040903E0CB6803F10C0900BF13460546F1
:10107000BAF1080F24BF203B04352E680F279F408C
:10108000BE4309FA03F333432B60CB79DB067FF5CC
:1010900083AF41F21804C4F2020423684FEA9A06AF
:1010A00043F001032360236840F6000403F00103CA
:1010B0000193019BACF57E7353F826B0C4F2010492
:1010C000A0420FD040F60044C4F20104A0423FF415
:1010D00025AF41F20004C4F20104009DA04208BF04
:1010E00002251CE700251AE702B0BDE8F08F0000DA
:1010F000C26802EA0103914341EA0341016170477A
:10110000002A08BF090401617047000040F6D8209A
:10111000C2F200000068704740F2000040F6D8219B
:10112000C2F20000C2F2000100780A6810440860B0
:101130007047000080B542F20000C4F2020001686E
:1011400041F010010160032000F08AF80F2000F048
:1011500005F800F027F8002080BD000070B540F2CF
:101160000006C2F2000640F208013278C2F2000125
:101170004FF47A730968B3FBF2F20446B1FBF2F163
:10118000084600F0E5FB0F2C4FF0010508D838B9F0
:101190004FF0FF3021460022002500F035F8746042
:1011A000284670BD82B041F21800C4F20200016806
:1011B000022241F001010160016801F00101019189
:1011C0000199416841F080514160406800F08050D1
:1011D000009000980420C4F20100016862F31A61D3
:1011E000016002B070470000002848BF704700F05F
:1011F0001F01012202FA01F14EF200124009CEF263
:10120000000242F82010704710B54EF60C5CCEF28A
:10121000000CDCF80030C3F3022E8EF00704042C1F
:1012200028BF0424BEF103034FF0FF3E0EFA04F47E
:1012300038BF0023A14399400EFA03F39A431143A8
:1012400000F00F02043A624409010C3200F16043DD
:10125000B0F1FF3FC8BF03F56442117010BD00003C
:101260004EF60C51CEF200010A684FF6FF031A4009
:1012700060F30A2242F0806040F0FD700860704721
:101280002DE9F04182B00446007841F21C06C00707
:10129000C4F202064AD0306810F0805808D1306895
:1012A00040F080503060306800F08050019001982C
:1012B00047F20007C4F200073868C00512D4386846
:1012C00040F480703860FFF721FF05463868C0059C
:1012D00008D4FFF71BFF401B6428F7D9032002B096
:1012E000BDE8F081706810F4407012D0616801F4BC
:1012F000407188420DD0706840F24042C4F24222F0
:10130000012320F4407113600023C0071360716053
:101310002AD17068616820F440700843B8F1000F6A
:10132000706003D1306820F0805030602068810701
:1013300007D556F8181CA26821F44041114346F81D
:10134000181CC00604D4002002B0BDE8F08100BF24
:1013500056F8180CE16820F48000084346F8180C91
:10136000002002B0BDE8F081FFF7D0FE054641F253
:10137000883700BF70688007CBD4FFF7C7FE401BDB
:10138000B8424FF00300F5D9EBE700002DE9F04338
:1013900081B0002800F0858042F20008C4F2020803
:1013A0000446D8F800000D4600F0070088420CD231
:1013B000D8F8000020F007002843C8F80000D8F84B
:1013C000000000F00700A8426BD1206841F2040938
:1013D0008107C4F2020917D5410705D5D9F80010D5
:1013E00041F4E061C9F80010010705D5D9F80010F3
:1013F00041F46051C9F80010D9F80010A26821F03A
:10140000F0011143C9F80010C00741D1D8F800001D
:1014100000F00700A8420CD9D8F8000020F007001F
:101420002843C8F80000D8F8000000F00700A842E0
:1014300037D12068410707D5D9F80010E26821F4B8
:10144000E0611143C9F80010000708D5D9F8000081
:10145000216920F4605040EAC100C9F80000D9F8C1
:10146000002002F00C00082841F20020C0F27A00AF
:1014700050D144F2DA03C2F38341C0F60003595C51
:10148000D2033BD440F60010C0F23D00484341E097
:10149000606802280AD001282AD159F8041C89035F
:1014A00008D4012001B0BDE8F08300BF59F8041C46
:1014B0008901F6D5D9F8001021F003010843C9F8D5
:1014C0000000FFF723FE064641F28837D9F80000F6
:1014D000616800F00C00B0EB810F97D0FFF716FEAB
:1014E000801BB842F2D9032001B0BDE8F08300BFF1
:1014F00059F8041C8907D4D5DCE700BFD9F80020CF
:1015000044F2D803C2F34042C0F600039A5C484359
:10151000B0FBF2F0D9F8001044F2C002C1F303119D
:10152000C0F60002515C40F2080220FA01F140F2DC
:101530000400C2F200000068C2F200021160FFF76E
:101540000DFE002001B0BDE8F083000040F208006D
:1015500041F20401C2F20000C4F20201006809680D
:1015600044F2D002C1F30221C0F60002515CC8402F
:101570007047000040F2080041F20401C2F200008E
:10158000C4F202010068096844F2D002C1F3C2212A
:10159000C0F60002515CC840704700002DE9F041E0
:1015A00082B0002868D00446007841F20006C007E7
:1015B000C4F2020625D0706800F00C0004281BD08D
:1015C000706800F00C00082802D17068C00313D4C2
:1015D0006068002800F06881B0F5A02F00F07C81E1
:1015E000B0F5803F00F07C81306820F480303060BE
:1015F000306820F4802076E13068800301D560688F
:10160000D0B32078800718D5706810F00C0F07D081
:10161000706800F00C0008286ED17068C0036BD4AD
:101620003068800702D52069012825D130686169BA
:1016300020F0F80040EAC1003060207800071FD495
:101640002078400732D4E56995B1706800F00C004D
:10165000082840F08F80012D0ED07068216A00F4B8
:1016600080328A4208D1616A00F47010884203D146
:10167000002002B0BDE8F081012002B0BDE8F08199
:10168000A069002862D00020C4F242200121C0F8E5
:101690008014FFF73BFD0546706A800700F18C80DF
:1016A000FFF734FD401B0228F6D92AE1F06910F05B
:1016B000805808D1F06940F08050F061F06900F086
:1016C00080500090009847F20007C4F20007386885
:1016D000C00529D4386840F480703860FFF716FDE3
:1016E000054600BF3868C0051ED4FFF70FFD401B3C
:1016F0006428F7D905E100BF2069002840F2000006
:10170000C4F2422000F0828001210160FFF7FEFC5C
:10171000054600BF306880073FF588AFFFF7F6FC4D
:10172000401B0228F6D9ECE0E068002800F0808039
:10173000052800F09780012800F09880306A20F09A
:1017400001003062306A20F0040092E00020C4F210
:1017500042200021C0F88014FFF7D8FC054600BFE6
:10176000706A80077FF56CAFFFF7D0FC401B022842
:10177000F6D9C6E00027C4F2422700203866FFF7FA
:10178000C5FC022D05460BD13068800140F1BE80BA
:10179000FFF7BCFC401B02284FF00300F4D968E7B8
:1017A000306880017FF564AFFFF7B0FC401B022872
:1017B0004FF00300F4D95CE740F20800C2F20000E9
:1017C000006844F6D351C1F26201A0FB0101480A4E
:1017D000019000BF00BF0198411E002801913FF415
:1017E0002FAF00BF0198411E002801913FF428AFA0
:1017F00000BF0198411E002801913FF421AF00BFB6
:101800000198411E00280191E4D119E700210160EF
:10181000FFF77CFC054600BF306880077FF50DAF01
:10182000FFF774FC401B02284FF00300F4D920E7B7
:10183000306A20F001003062306A20F0040030622B
:10184000FFF764FC054641F2883700BF306A800725
:1018500020D5FFF75BFC401BB8424FF00300F5D9E1
:1018600007E700BF306A40F004003062306A40F0A1
:1018700001003062FFF74AFC054641F2883700BF9D
:10188000306A800706D4FFF741FC401BB842F7D905
:1018900037E000BFB8F1000F7FF4D5AEF06920F05B
:1018A0008050F061CFE600BF306820F480303060B7
:1018B000306820F480203060FFF728FC054600BF28
:1018C000306880037FF59DAEFFF720FC401B642845
:1018D0004FF00300F4D9CCE6306840F4802030604B
:1018E000306840F480303060FFF710FC054600BFE0
:1018F000306880033FF585AEFFF708FC401B642885
:10190000F6D9032002B0BDE8F08100BF206AB0F52F
:10191000803F05D17168A26821F4003111437160E4
:101920007168626A21F474111043084370600120E9
:101930003866FFF7EBFB0446306880013FF598AE50
:10194000FFF7E4FB001B02284FF00300F4D990E6F8
:10195000411E0020B0EB116F1CBF012070474EF2FA
:101960001002CEF2000251604EF62351CEF2000179
:10197000F0230B70072190601160704770470000E2
:1019800070470000B0B590F83C20012A04BF022047
:10199000B0BD01F108053CCDD1E900CE23F47C5364
:1019A00022F470521A432EF4F0431A432CF4E0430D
:1019B0001A4324F4C0431A432A43C96922F48042DB
:1019C000036811435964002180F83C100846B0BDFB
:1019D00010B590F83C20012A4FF0020233D080F875
:1019E0003D200268D2F804E0D2F808C00C682EF05E
:1019F0007003234340F2FF74C4F20004A242536018
:101A00000ADCB2F1804F13D040F20043C4F200036D
:101A10009A420DD011E000BF42F60043C4F2010328
:101A20009A4205D040F60003C4F200039A4204D162
:101A300049682CF08003194391600121002280F84D
:101A40003D1080F83C20104610BD0000002804BF67
:101A50000120704710B5044690F83D0028B90020D9
:101A600084F83C00204600F06FF8022084F83D0026
:101A7000206840F2FF730268C4F2000342F6004C93
:101A80009842C4F2010C15DCB0F1804F1AD040F23C
:101A90000041C4F20001884214D0984218DCB0F131
:101AA000804F1DD040F20041C4F20001884217D09F
:101AB0001AE000BF604505D040F60001C4F2000105
:101AC0008842EAD1A16822F070020A439842E6DD1A
:101AD000604505D040F60001C4F20001884203D100
:101AE000216922F440720A43A36922F08001D4F8EC
:101AF00004E0E268194360450160C262C0F828E072
:101B000002D16169CCF83010012141610269D2072C
:101B100003D0026922F001020261002084F846101D
:101B200084F83E1084F83F1084F8401084F8411087
:101B300084F8421084F8431084F8441084F8451067
:101B400084F83D1010BD000010B582B00068B0F1FF
:101B5000804F15D042F60041C4F20101884229D1DC
:101B600041F21800C4F202000168192441F4006136
:101B70000160006800F40060019001980EE000BF71
:101B800041F21800C4F2020041681C2441F0010136
:101B90004160406800F0010000900098204600215C
:101BA0000022FFF731FB204602B0BDE81040FFF7EE
:101BB0001BBB00BF02B010BD90F83D1001291CBF37
:101BC00001207047022180F83D10006840F2FF724A
:101BD000C168C4F20002904241F00101C16009DC19
:101BE000B0F1804F12D040F20041C4F200018842AF
:101BF0000CD012E042F60041C4F20101884205D047
:101C000040F60001C4F20001884206D1816801F06B
:101C10000701062904BF00207047016841F0010157
:101C2000016000207047000080B590F83C20012A38
:101C30004FF0020200F0C28080F83D20D0F800C0D2
:101C40004FF67772DCF8083023EA0202CCF808205D
:101C50000B684F2B28DC1F2B44DD202B45D0302B6D
:101C600043D0402B40F0AC80D1F804E0C968DCF8E8
:101C70002030DCF8202022F00102CCF82020DCF813
:101C8000182022F0F00242EA011123F00A0242EA8F
:101C90000E02CCF81810CCF82020DCF8081041F027
:101CA000470121F0300180E06F2B27DDB3F5005FA5
:101CB00048D0B3F5805F7AD0702B40F08180D1E9B5
:101CC00001E3C968DCF8082043EA0E0322F47F42EE
:101CD00043EA01211143CCF80810DCF8081041F068
:101CE000770162E00BB1102B6AD1DCF8081021F00B
:101CF0007001194341F0070157E000BF502B35D068
:101D0000602B5DD1D1F804E0C968DCF82030DCF844
:101D1000202022F01002CCF82020DCF8182022F439
:101D2000704242EA013123F0A00242EA0E12CCF8DE
:101D30001810CCF82020DCF8081041F0670121F0E1
:101D4000100132E0D1E901E3C968DCF8082043EA78
:101D50000E0322F47F4243EA01211143CCF808101C
:101D6000DCF8081041F480411FE000BFD1F804E026
:101D7000C968DCF82030DCF8202022F00102CCF821
:101D80002020DCF8182022F0F00242EA011123F0B2
:101D90000A0242EA0E02CCF81810CCF82020DCF837
:101DA000081041F0570121F02001CCF80810002262
:101DB000012180F83D10002180F83C10104680BDC4
:101DC0000122F5E77047000070B504460068C56859
:101DD0000669B10716D515F0020113D06FF00201A4
:101DE0000161012121778069800703D02046FFF738
:101DF000E9FF05E0204600F08FF8204600F010FAD9
:101E000000202077700719D515F0040016D020683F
:101E10006FF00401016102212177806910F4407F95
:101E200004D02046FFF7CEFF06E000BF204600F0BA
:101E300073F8204600F0F4F900202077300717D51A
:101E400015F0080014D020686FF00801016104212A
:101E50002177C069800703D02046FFF7B3FF05E074
:101E6000204600F059F8204600F0DAF900202077EB
:101E7000F00619D515F0100016D020686FF010018B
:101E8000016108212177C06910F4407F04D0204609
:101E9000FFF798FF06E000BF204600F03DF820461F
:101EA00000F0BEF900202077F00718BF15F0010000
:101EB00002D1300609D412E020686FF001010161FF
:101EC000204600F01FFA300609D515F0800006D034
:101ED00020686FF0800101612046FFF74FFD70061A
:101EE00009D515F0400006D020686FF0400101616F
:101EF000204600F075FAB00658BF70BD15F02000FE
:101F000008D021686FF0200220460A61BDE87040C9
:101F1000FFF736BD70BD0000704700002DE9F043AB
:101F200090F83C30012B04BF0220BDE8F0834FEA5B
:101F3000B202032A3CD8DFE802F003437FB900BFB6
:101F4000036842F600461D6A1A6AC4F2010622F0CE
:101F500001021A621A465C6852F818CFB3428E68C2
:101F6000D1F800E025F0020545EA06050CD1CE685F
:101F7000D1E9057824F4407425F00C0526F0040618
:101F80003C43354344EA08042CF0730747EA0E0744
:101F90005C609F614F6809695F631D629F6947F0DC
:101FA00008079F619F6927F004079F61AEE000BFAB
:101FB0000121002280F83C200846BDE8F08300BFE4
:101FC000036842F600461D6A1A6AC4F2010622F04E
:101FD00010021A621A46D3F804C052F8184FB342DE
:101FE0008E68D1F800E025F0200545EA06150FD1EE
:101FF000CE68D1E905986FF0400707EA06162CF481
:10200000406725F0C00547EA8907354347EA880C51
:1020100024F4E64444EA0E27C3F804C09F614F68E5
:1020200009699F631D629F6947F400679F619F690B
:1020300027F480679F6168E0036842F600461D6AE6
:102040001A6AC4F2010622F480721A621A46D3F8A0
:1020500004C052F81CEFB3428E680C6825F400757A
:1020600045EA06250FD1CE68D1E90598360240F23F
:10207000FF47BE432CF4405725F4406547EA091753
:10208000354347EA081C2EF073072743C3F804C002
:10209000DF614F680969DF631D62DF6947F0080788
:1020A000DF61DF6927F00407DF612FE0036842F694
:1020B0000047D3F820C01A6AC4F2010722F4805204
:1020C0001A621A465C6852F81C5FD1F800E08E680C
:1020D000BB4204D14F6924F4804444EA87142CF4B1
:1020E000005747EA063725F4E64646EA0E265C60C6
:1020F000DE614E6809691E641F62DF6947F400678C
:10210000DF61DF6927F48067DF6109021368194323
:1021100011600021002280F83C200846BDE8F083D1
:10212000002804BF0120704710B5044690F83D0018
:1021300028B9002084F83C00204600F06FF8022007
:1021400084F83D00206840F2FF730268C4F2000387
:1021500042F6004C9842C4F2010C15DCB0F1804FFD
:102160001AD040F20041C4F20001884214D09842D3
:1021700018DCB0F1804F1DD040F20041C4F20001E4
:10218000884217D01AE000BF604505D040F6000134
:10219000C4F200018842EAD1A16822F070020A4329
:1021A0009842E6DD604505D040F60001C4F200012A
:1021B000884203D1216922F440720A43A36922F0C4
:1021C0008001D4F804E0E268194360450160C2620E
:1021D000C0F828E002D16169CCF8301001214161DA
:1021E0000269D20703D0026922F0010202610020D5
:1021F00084F8461084F83E1084F83F1084F84010AC
:1022000084F8411084F8421084F8431084F8441094
:1022100084F8451084F83D1010BD000070470000A0
:102220007047000041B1082910D0042914BF00F103
:10223000410200F13F020BE090F83E20012A1CBF52
:1022400001207047022280F83E2013E000F1400296
:102250001278012A1CBF012070470222082907D0EA
:10226000042914BF80F8412080F83F2002E000BF1D
:1022700080F84020006801F01F010122036A8A40B3
:1022800023EA02010162036A42F64441C4F20101F9
:102290001A43A1F14403984202620FD040F2FF7149
:1022A000C4F20001884213DCB0F1804F1CD040F230
:1022B0000041C4F20001884216D01CE00A6842F4D2
:1022C00000420A6040F2FF71C4F200018842EBDD77
:1022D00042F60041C4F20101884205D040F60001F7
:1022E000C4F20001884206D1816801F00701062985
:1022F00004BF00207047016841F001010160002027
:1023000070470000F0B587B00068B0F1804F11D081
:1023100042F60041C4F2010188425ED140F600401D
:10232000C4F201004FF4805107B0BDE8F040FEF761
:10233000DFBE00BF40F2700440F64810C2F2000455
:10234000C2F2000021460122FEF74EFB208801F078
:10235000D7FD4FF20005C4F27F55294601F00EFD6E
:1023600043F23336C4F25306314601F0DDFD40F648
:1023700080076168C2F200073860B1F5FA7FA8BF34
:1023800000214A1C626040F2B002C2F2000242F830
:10239000210004F11000FEF76DF8A06041F2040086
:1023A000CEF2000001682088216101F0A9FD2946D4
:1023B00001F0E4FC314601F0B7FD00F0FDFF01F053
:1023C000EBF9E268396800270023CDE90077CDE911
:1023D00002770497059700F0CDFF07B0F0BD00002D
:1023E000704700007047000070470000B0B582B031
:1023F000044600680168C368426901F02F05202D7A
:1024000003F0200506D12DB1204602B0BDE8B04052
:1024100000F028BF5FEA017C1EBF02F0010E03F44A
:10242000907212EB0E0255D1226B012A05D111F0E8
:10243000100218BF13F0100236D10A0622D513F08D
:1024400080021FD094F84110212941D1A168B1F533
:10245000805F03D12169002900F07282216A4A1C41
:10246000226209784160E18C01390A04E1842FD1AC
:10247000C16821F08001C160C16841F04001C160C4
:1024800002B0B0BD490623D513F0400120D0C16889
:1024900021F04001C1602021204684F8411002B0A3
:1024A000BDE8B04000F088BB0021019101680191B6
:1024B0004168019101994169490600F18F80A18D20
:1024C000E28DE38D002B1CBF891A5FEA01420CD11B
:1024D00002B0B0BDCA0718BF13F4807240F0388153
:1024E0004A0700F13B8140E1206850E8030F226871
:1024F00020F4907042E80303DBB1206850E8030F3A
:10250000226820F4907042E8030393B1206850E8F9
:10251000030F226820F4907042E803034BB1206857
:1025200050E8030F226820F4907042E80303002B68
:10253000DAD1206850E8050F226820F0010042E857
:102540000503DBB1206850E8050F226820F0010088
:1025500042E8050393B1206850E8050F226820F097
:10256000010042E805034BB1206850E8050F2268DE
:1025700020F0010042E80503002BDAD1202084F886
:10258000420000202063206850E8030F226820F0FA
:10259000100042E80303DBB1206850E8030F226813
:1025A00020F0100042E8030393B1206850E8030FC5
:1025B000226820F0100042E803034BB1206850E885
:1025C000030F226820F0100042E80303002BDAD149
:1025D000022289B220466263B4E000BFE16B0A6860
:1025E000526893B2002B3FF473AFA58DAB42BFF49A
:1025F0006FAFE2858969202900F09D8050E8030FC4
:10260000216820F4807041E80302EAB1206850E8B4
:10261000030F216820F4807041E80302A2B1206812
:1026200050E8030F216820F4807041E803025AB19A
:10263000206850E8030F216820F4807041E803020D
:1026400012B12068DAE700BF206850E8050F216862
:1026500020F0010041E80502DAB1206850E8050FDA
:10266000216820F0010041E8050292B1206850E89D
:10267000050F216820F0010041E805024AB12068F9
:1026800050E8050F216820F0010041E80502002A0A
:10269000DAD1206850E8050F216820F0400041E8B9
:1026A0000502DAB1206850E8050F216820F04000EB
:1026B00041E8050292B1206850E8050F216820F03A
:1026C000400041E805024AB1206850E8050F216842
:1026D00020F0400041E80502002ADAD1202084F8E9
:1026E000420000202063206850E8030F216820F09A
:1026F000100041E80302DAB1206850E8030F2168B6
:1027000020F0100041E8030292B1206850E8030F66
:10271000216820F0100041E803024AB1206850E827
:10272000030F216820F0100041E80302002ADAD1EB
:10273000E06BFEF7E5F902206063A08DE18D401AA1
:1027400081B2204602B0BDE8B040FFF74BBE00BFEB
:10275000626C42F0010262644A0706D5BEF1000FC6
:1027600003D0626C42F0020262648A0706D5BEF1B1
:10277000000F03D0626C42F004026264BCF1000FEF
:1027800006D555EA0E0203D0626C42F0080262647C
:10279000626C002A3FF49CAE11F0200118BF002D9E
:1027A00003D0204600F05EFD20684169626C01F0B4
:1027B000400102F00802891800F0A28050E8030FDF
:1027C000216820F4907041E80302C2B3206850E809
:1027D000030F216820F4907041E803027AB3206867
:1027E00050E8030F216820F4907041E8030232B3EF
:1027F000206850E8030F216820F4907041E803023C
:10280000EAB12068DAE700BF206850E8050F2168C8
:1028100020F0010041E80502DAB1206850E8050F18
:10282000216820F0010041E8050292B1206850E8DB
:10283000050F216820F0010041E805024AB1206837
:1028400050E8050F216820F0010041E80502002A48
:10285000DAD1206B012824D1206850E8030F2168C9
:1028600020F0100041E80302DAB1206850E8030FBD
:10287000216820F0100041E8030292B1206850E87E
:10288000030F216820F0100041E803024AB12068DC
:1028900050E8030F216820F0100041E80302002AED
:1028A000DAD1202084F842000020206320684169AA
:1028B00049063FD550E8050F216820F0400041E867
:1028C00005022AB3206850E8050F216820F0400077
:1028D00041E80502E2B1206850E8050F216820F0C8
:1028E000400041E805029AB1206850E8050F2168D0
:1028F00020F0400041E8050252B12068DAE700BF4D
:102900002046FFF771FD0020606402B0B0BD00BF3B
:10291000E06B78B143F22501C0F600014163FEF798
:1029200013F900283FF4D4ADE06B416B02B0BDE871
:10293000B0400847204602B0BDE8B040FFF754BDA4
:10294000216A31F8022B6FF35F22426021628AE52F
:10295000002804BF0120704710B5044690F84100DC
:1029600028B9002084F84000204600F061F82420B7
:1029700084F841002068D4E90212C36823F40053AC
:10298000C360036923F440531A430261D4E904236A
:102990001143C268194341F20C639A431143C16069
:1029A0004169A26921F44071114343F60002C4F267
:1029B00001029042416103D0FEF7C8FD02E000BF72
:1029C000FEF7D8FD6268192148439100B0FBF1F091
:1029D00048F21F51C5F2EB11A0FB01235A096FF019
:1029E000630302FB0300322303EB0010A0FB010191
:1029F000F02303EA5113206803EB0212C1F34311E1
:102A000011448160016921F490410161416921F023
:102A10002A014161C16841F40051C16000202021B8
:102A2000606484F8411084F84210606310BD0000B7
:102A3000F0B585B040F600050446C4F20105006813
:102A4000A5F5444100278842039701D005B0F0BDA9
:102A500041F21800C4F20200416801AE41F40031B5
:102A60004160416801F4003100910099016841F032
:102A7000040101600068314600F0040000900098F5
:102A80000420019002200290032004902846FEF7C3
:102A900025FA0820CDE90107284631460397FEF7BD
:102AA0001DFA40F6BC158020C2F20005C4F20200F7
:102AB000102180224FF4005385E883002846C5E9A1
:102AC0000327C5E90577EB61FEF768F9002818BF11
:102AD000FDF732FD262000210022A5636C62FEF77F
:102AE00093FB2620FEF780FB05B0F0BD7047000089
:102AF00070B5044690F8410020281CBF022070BD2C
:102B000000294FF0010553D01346002A50D000256C
:102B100021202162A384E384656484F84100226853
:102B2000A06B43F2AD1C43F25D2E43F23106C0F6BA
:102B3000000CC0F6000EC0F600060432C0E90ACE52
:102B4000C0E90C65FEF76EF920686FF0400140F8AF
:102B5000141B50E8000F216840F0800041E8050296
:102B600032B300BF206850E8050F216840F08000B4
:102B700041E80502F2B1206850E8050F216840F0F5
:102B8000800041E80502AAB1206850E8050F2168DD
:102B900040F0800041E8050262B1206850E8050F6E
:102BA000216840F0800041E80502002ADAD10025C2
:102BB000284670BD002070BD7047000070470000BF
:102BC000FEE70000B0B584B040F6481042F2004184
:102BD000C2F20000C4F20101002401254FF460227A
:102BE00005730475C261C0E9001484600561FDF7D6
:102BF000F3FD002818BFFDF79FFC0720039040F667
:102C00004810C2F2000001A9CDE90145FDF79CFC86
:102C1000002818BFFDF790FC04B0B0BD80B582B0AD
:102C200041F21400C4F202000168002241F00101E7
:102C300001600068002100F00100019001980B2064
:102C4000FEF7E2FA0B20FEF7CFFA11200021002256
:102C5000FEF7DAFA112002B0BDE88040FEF7C4BAF0
:102C60002DE9F04186B0002641F218000596C4F225
:102C70000200016840F6004441F020010160016853
:102C8000C4F2010401F020010191019901680022C0
:102C900041F00401016001684FF4405801F0040163
:102CA00001910199016841F00801016000684FF449
:102CB000405100F00800019001982046FEF720FAEC
:102CC0004FF4806002ADCDE9020601272046294677
:102CD0000497FEF703F94FF4006002900020C1F260
:102CE0001100CDE9030720462946FEF7F7F8022038
:102CF000059020462946CDE902870496FEF7EEF8B6
:102D0000282000210022FEF77FFA2820FEF76CFA27
:102D100006B0BDE8F081000070B59CB040F600043C
:102D2000C4F2010440F60020002104F51052C2F262
:102D3000000041F61F4340F2E73680251691CDE9A9
:102D400014111191CDE90F11CDE90D11CDE90B1140
:102D5000CDE90911CDE90711CDE90511CDE903113F
:102D6000CDE90111C0E90023C0E90216C0E9041150
:102D70008561FEF76BFE002818BFFDF7DDFB4FF401
:102D80008050139040F60020C2F2000013A9FEF715
:102D90004BFF002818BFFDF7CFFB40F60020C2F222
:102DA0000000FFF7BDF9002818BFFDF7C5FB40F68E
:102DB00000200025C2F2000010A9CDE91055FEF751
:102DC00007FE002818BFFDF7B7FB6020CDE9090515
:102DD00040F60020C2F2000009A90022CDE90B55FF
:102DE000CDE90D550F95FFF799F8002818BFFDF7AD
:102DF000A3FB40F600254FF40050C2F20005002668
:102E0000069001A928460596CDE90366CDE901663D
:102E10000896FEF7B7FD002818BFFDF78DFB286860
:102E20001A96B0F1804F1996189615D042F60041C7
:102E3000C4F20101884225D141F21800C4F2020017
:102E4000016841F004010160006800F0040017907F
:102E500017984FF480700DE041F21800C4F20200A0
:102E6000016841F004010160006800F0040017905F
:102E7000179802201890022019901B9018A920463C
:102E8000FEF72CF81CB070BD10B594B040F6482089
:102E90000021C2F2000040F2E7340E91CDE90C119E
:102EA0000991CDE90711CDE90511CDE90311CDE96E
:102EB00001114FF080424723C0E9021401618021D3
:102EC000C0E900238161FEF7C1FD002818BFFDF7AE
:102ED00033FB4FF480500B9040F64820C2F20000C4
:102EE0000BA9FEF7A1FE002818BFFDF725FB40F651
:102EF0004820C2F20000FFF713F9002818BFFDF7C1
:102F00001BFB40F648200024C2F2000008A9CDE9CE
:102F10000844FEF75DFD002818BFFDF70DFB60209B
:102F2000CDE901040394059440F64824C2F200045C
:102F300001A920460422FEF7F1FF002818BFFDF783
:102F4000FBFA20680021B0F1804F1291119110918D
:102F500016D042F60041C4F20101884229D141F263
:102F60001800C4F20200016841F004010160006829
:102F700000F004000F900F984FF480700EE000BF37
:102F800041F21800C4F20200016841F0040101603E
:102F9000006800F004000F900F98022010900220AB
:102FA0001190139040F60000C4F2010010A9FDF743
:102FB00095FF14B010BD000080B540F6902044F29B
:102FC0000041C2F20000C4F2000100234FF00C0CDB
:102FD0004FF4E13280E80E00C0E90333C0E905C3D5
:102FE000C361FFF7B5FC002808BF80BDBDE8804085
:102FF000FDF7A2BAFEE70000FEE700007047000000
:1030000070470000FEF788B87047000040F60020C7
:10301000C2F20000FEF7D8BE40F64820C2F200001F
:10302000FEF7D2BE406A0021C185C184FFF7DCB93A
:10303000406A01684A6990F84130212B2ED112F084
:1030400080022BD00022C28451E8031F026821F0C5
:10305000C00142E80313EBB1016851E8031F0268A5
:1030600021F0C00142E80313A3B1016851E8031F36
:10307000026821F0C00142E803135BB1016851E826
:10308000031F026821F0C00142E8031313B1016875
:10309000DAE700BF202180F8411001684A6990F802
:1030A0004230222B7CD112F0400279D00022C2851E
:1030B00051E8031F026821F4907142E80313C3B37F
:1030C000016851E8031F026821F4907142E803137C
:1030D0007BB3016851E8031F026821F4907142E854
:1030E000031333B3016851E8031F026821F49071A0
:1030F00042E80313EBB10168DAE700BF016851E869
:10310000051F026821F0010142E80513DBB10168E7
:1031100051E8051F026821F0010142E8051393B14F
:10312000016851E8051F026821F0010142E805131A
:103130004BB1016851E8051F026821F0010142E826
:103140000513002BDAD1016B012924D1016851E864
:10315000031F026821F0100142E80313DBB101688C
:1031600051E8031F026821F0100142E8031393B1F4
:10317000016851E8031F026821F0100142E80313BF
:103180004BB1016851E8031F026821F0100142E8C9
:103190000313002BDAD1202180F8421000210163B3
:1031A000416C41F010014164FFF71EB90168406AAB
:1031B0000968890648BFFFF7FFBC0021C18400BF32
:1031C000016851E8051F026821F0800142E80513FB
:1031D00083B3016851E8051F026821F0800142E8CD
:1031E00005133BB3016851E8051F026821F0800117
:1031F00042E80513F3B1016851E8051F026821F0A8
:10320000800142E80513002BDAD113E0016851E890
:10321000031F026841F0400142E80313002B08BF7E
:103220007047016851E8031F026841F0400142E81D
:10323000031393B1016851E8031F026841F0400194
:1032400042E803134BB1016851E8031F026841F0E3
:10325000400142E80313002BD8D17047406AFFF7C2
:10326000ADBC000081B090F84210222920D18368C3
:10327000B3F5805F08D10169002965D000F128010C
:103280000A6803685B680AE0014651F8282F13B901
:103290000369002BF5D003685B6803F07F031370AC
:1032A0000A6801320A60C18D01390A04C18501D062
:1032B00001B070470168CA6822F02002CA60CA687B
:1032C00022F48072CA604A6922F001024A61202217
:1032D00080F8422000224263036B012B3ED102633F
:1032E00051E8031F026821F0100142E8031301684E
:1032F000DBB151E8031F026821F0100142E803131B
:10330000016893B151E8031F026821F0100142E8FF
:10331000031301684BB151E8031F026821F010014B
:1033200042E803130168002BDAD10A68D20606D5F9
:10333000002200920A680092496800910099818DEC
:1033400001B0FFF74FB800BF0168826A49686FF3A8
:103350005F2122F8021B8262A5E700BF01B0FFF7E0
:10336000C5BB000040F69020C2F20000FFF73EB857
:10337000FEE700002DE9F04140F6800CC2F2000C9F
:10338000DDE90A8EDDE90865DDE906478CE89F0086
:103390004FF0FF40CCF8280040F69020CCE90665BD
:1033A000CCF82080C2F2000061462C22CCF824E048
:1033B000BDE8F041FFF79CBB2DE9F04F91B040F61E
:1033C000B004C2F20004054604F108002146402280
:1033D000FCF7FAFE284600F0A5FC8046894604F179
:1033E000500004F148014022C4E90089FCF7ECFEDA
:1033F000206941F6CF220490606945F6DD430390D1
:10340000A069D4E902AB0690E069C1F2E33205900D
:10341000206AC4F21E030890606A0790A06A0A90AE
:10342000E06A0990206B0C90606B0B90A06B0E9083
:10343000E06B0D90206C1090606C0F90D4E914013B
:1034400000F084FA0546D4E9160649F6CC7243F238
:10345000D6730F46CBF6BF02CCF23903314600F0EB
:1034600075FA2A463B4600F0C9F90546D4E9180723
:103470004DF6B3624FF259230E46C6F68862C4F287
:103480004703394600F062FA2A46334600F0B6F99F
:103490000546D4E91A0747F6416246F65D730E46C3
:1034A000C0F21342CCF24C03394600F04FFA2A46E0
:1034B000334600F0A3F90546D4E91C074BF6B67273
:1034C00049F60F630E46C8F63E72C4F2450339460C
:1034D00000F03CFA2A46334600F090F90546D4E95C
:1034E0001E0743F24D4248F6F1430E46CDF26862A4
:1034F000CCF23403394600F029FA2A46334600F06C
:103500007DF90546D4E9200743F2AF4245F2D65390
:103510000E46C4F2FD22C4F21603394600F016FA34
:103520002A46334600F06AF90546D4E9220748F2F4
:10353000A07243F687730E46C3F6CA72CBF6E573E4
:10354000394600F003FA2A46334600F057F949F6A7
:10355000AB2243F66A73CDE90110C8F21E02C3F62E
:1035600097534046494600F0F1F949F6E13243F6F7
:103570006A7305460E46C8F21E02C3F6C75350468C
:10358000594600F0E3F92A46334600F037F94CF685
:103590002C4945F27D7B07460D46C3F21A09C3F656
:1035A000E45BDDE903104A465B4600F0CFF93A469A
:1035B0002B4600F023F94CF29E4745F27D7A0546F2
:1035C0008846C3F21A07C3F6F45ADDE905103A46F5
:1035D000534600F0BBF92A46434600F00FF9054672
:1035E0000E4647F2A97246F65C53DDE90710C7F6AE
:1035F0002142C3F6F95300F0A9F92A46334600F0F8
:10360000FDF805460E46DDE909103A46534600F03E
:103610009DF92A46334600F0F1F805460E46DDE9ED
:103620000B104A465B4600F091F92A46334600F0FB
:10363000E5F805460E46DDE90D1049F6E13243F6A0
:103640006A73C8F21E02C3F6C75300F07FF92A4618
:10365000334600F0D3F805460E46DDE90F1049F673
:10366000AB2243F66A73C8F21E02C3F6975300F00A
:103670006DF92A46334600F0C1F8DDE9013200F069
:10368000BDF8C4E91201C4E9240111B0BDE8F08F0E
:1036900094B0FDF74FFD00240120CDE90F44CDE9A2
:1036A0000D440A900E904FF4E0104FF48031022543
:1036B00013900AA80494CDE90244CDE90B14CDE996
:1036C0001151FDF76BFF28B1EFF3108072B600BF08
:1036D000FEE700BF0F20CDE905054FF48060CDE97E
:1036E000080405A802210794FDF750FE20B1EFF36E
:1036F000108072B6FEE700BF022001904FF4004038
:10370000039001A8FDF7BCFD20B1EFF3108072B665
:10371000FEE700BFFFF7A4FAFFF780FAFFF752FABF
:10372000FFF74AFCFFF7F8FAFFF7AEFB4820FCF77B
:10373000CBFE40F60024C2F200042046FEF73CFA1D
:1037400040F64825C2F200052846FEF735FA28461D
:103750000421FEF767FD20460021FEF763FD40F6D9
:10376000481040F27001C2F20000C2F200010122D2
:10377000FDF73AF940F69020C2F2000002A10E22B5
:10378000FFF7B6F9FEE700BF53573220414443200C
:10379000544553540D0A000021F0004201F000434B
:1037A000A2F16052B2F5801F28BFD2F17F6C0BD915
:1037B0005FEA001C43EAC20242EB507018BF704738
:1037C00028BF20F001007047B2F5801FBCBF18462B
:1037D00070474FEA410C1CF5001F02D2084600F06A
:1037E0006ABC70B500F05CF900000089FFF7F6BF15
:1037F0004FF00040A0F580007047000010B591EA3E
:10380000030F48BF83F0004300F1A681841A71EBD7
:10381000030C05D2121943EB0C03001B61EB0C01E6
:103820004FEA1154A4EB135CDFF81CE11EEA430FCE
:1038300018BF9EEA445F00F0748021EA045123EA35
:103840000E0343F48013DCF1200E32D322FA0CFE77
:1038500010EB0E0023FA0CFE41EB0E01CCF1200E12
:1038600003FA0EFE10EB0E00CCF1200E51F1000118
:10387000B1F5801F32D201EB045112FA0EF2BDE80D
:10388000104058BF7047401C38BF5FEA420218BF63
:103890007047002814BF20F0010041F100014FEAF9
:1038A000410313F5001F38BF7047A1F1C04100F07C
:1038B00045B9012A43EB0302ACF1200CDCF11F0EE9
:1038C00032BF4FF0000E23FA0CF310EB030041EB74
:1038D0000451B4EB115FD0D0A1EB045101F580117C
:1038E000490801EB04515FEA30000ED350F10000AB
:1038F00038BF12FA0EFE08D1BDE81040C9E7401CDF
:1039000038BF5FEA4202CAD1C3E7BDE810404FEAC0
:10391000410313F5001F38BF7047A1F1C04100F00B
:103920000DB99EEA445F08D011EA5E0FBDE8104071
:1039300004BF01F0004100207047BDE8104070B5A1
:1039400000F0AEF864FBBE3E0000E0FF70B5DFF8AB
:1039500048C11CEA111E1EBF1CEA13159EEA0C0F7B
:1039600095EA0C0F00F06F8081EA03044EEAD47EE2
:10397000AE4421EA4C1123EA4C1341F4801143F484
:103980008013AEF17F7EA1FB024CA0FB03653619CC
:1039900055EB0C05A1FB034C4CF10003A0FB021CF2
:1039A00016EB0C06654153F10003094218BF46F0BF
:1039B000010613F4007F0BD14FEA03314FEA0530C3
:1039C00041EA155140EA165034036FF003020AE051
:1039D0004FEAC3214FEAC52041EA555140EA56500B
:1039E000F4026FF0020202EB2E4201EB025585EA6F
:1039F000CE710AD05FEA440C18BF24F0004450F1A5
:103A0000000041F1000120EAD47040F2FE7C6245E2
:103A100000D270BDA84214BF4FF080444FF0404424
:103A2000002E08BF0024BEF1806FA8BFA1F1C041E5
:103A3000BDE8704080F2828001F1C04101F0004198
:103A40004FF0000070470CEA13159EEA0C0F18BFE8
:103A500095EA0C0F06D081EA030E4FF000000EF03D
:103A6000004170BD00F01CF88900013E00F007B86D
:103A700000F009B84FEA430C5FEA5C5C08D081EAC9
:103A8000030100F05BB84FEA410C5FEA5C5CF6D1E1
:103A900002494FF0000070470000FF070000F87F68
:103AA0000EF1020E2EF0030E5EF8046B364205D4C2
:103AB000012A43EB030515F5001F12D8012841EB3D
:103AC000010C1CF5001F0CD80ED14FEAD17C0CEB79
:103AD0004C0C0CF1020C15F5001F08BF4CEBD37C0D
:103AE00004E04FF0080C01E04FEAD37C0CEB4C05EE
:103AF00026FA05F606F00706B6F1040C06D20EEB20
:103B0000860CBDE870404CF0010C6047DFE80CF01B
:103B1000090B02024FF00041A1F500214FF0000017
:103B200070BD19461046012851EB010418BFD4F5A9
:103B3000001484BF002001F0004170BD0808A0F50A
:103B400000114FEA3101704710B591EA030F48BFE9
:103B500083F000433FF55AAE841A71EB030C07D291
:103B60008CF0004C121943EB0C03001B61EB0C01B1
:103B70004FEA1154A4EB135CDFF8A4E11EEA430FF3
:103B800018BF9EEA445F00F0B48021EA045123EAA2
:103B90006E035242C3EB6E0338BF5B1EDCF1200E96
:103BA00025D322FA0CFE10EB0E0043FA0CFE41EB7B
:103BB0000E01CCF1200E03FA0EFE10EB0E00CCF13C
:103BC000200E51F1000129D401EB045112FA0EF23A
:103BD000BDE8104058BF7047401C1CBFB2F1004FF9
:103BE000704700280CBF491C20F00100704712EB01
:103BF000020E43EB030218BF4FF0010E4EEA4202E1
:103C0000ACF1200CDCF11E0E56D943FA0CFE10EB81
:103C10000E00CCF11E0E51F1FF31D5D50EF1010E83
:103C200012FA0EFE404141EB010101EB445C5FEAF8
:103C30005C5C10D901EB045110EBDE7038BFBEF1B3
:103C4000004FBDE8104018BF704700280CBF491C4A
:103C500020F00100704734D24FEAD42C24F40064E1
:103C600011F500111BD0B1FA81F20B3AA41AA41E6F
:103C7000D2F12003914030FA03F31943904001EB55
:103C8000CC7101EB0451002CBDE81040A8BF704777
:103C900001F1C04101F000414FF000007047B0FA5F
:103CA00080F310FA03F102D1BDE810407047E41A26
:103CB000173C4805C90AE2E701EB0451BDE8104092
:103CC000704749104FEA300001EB0451BDE8104045
:103CD00002E04FF0000170474A0008BF0042F8D0F0
:103CE000B2F5001F28BF704701F000414FF00000FF
:103CF00070479EEA445F07D011EA5E0FBDE81040AE
:103D000004BF002100207047BDE8104070B5FFF7E8
:103D1000C7FE00BF40DFF63E104683F0004170470B
:103D20000000E0FF43004FEAD30C4FEA3C0C434055
:103D30001FBF40070CF1605113F0FE4F70471CF09D
:103D4000006F03D10CF00041002070470CF00043DD
:103D500043EA507040EACC0010B500F066F900BFAD
:103D6000000000924FEA0001FFF7E8BE4FF000416B
:103D7000A1F500214FF00000704700004FF47F0CC8
:103D80001CEAD0121EBF1CEAD11392EA0C0F93EA70
:103D90000C0F00F0858090EA010F48BF42F480725A
:103DA00040F4000C41F400002CF07F4120F07F40F3
:103DB00000B5A2EB030281420FF2081CACEB504E9F
:103DC0009EF800E0C0F100004FEA4E0E00FB0EFC32
:103DD00038BF49004FEA2C1C0CFB0EF34FEACE1EF5
:103DE0000EEB635E4FEA112C0EFB0CFC4FEAC12177
:103DF0004FEA1C5300FB031102F5FA024FEA112CA3
:103E00000EFB0CFC4FEA01314FEADC4C00FB0C11BD
:103E100042EB2242C14228BF09184CEB03335DF844
:103E200004EB10EB410143EBC250B2F57C0F38BFFD
:103E3000704729D512F0F00F1CBF00F1C04000F010
:103E400000407047008182838485868788898B8CB7
:103E50008D8E8F919293959697999A9C9D9FA0A2F3
:103E6000A3A5A7A8AAACAEB0B2B3B5B7B9BCBEC043
:103E7000C2C5C7C9CCCED1D4D7D9DCDFE2E6E9ECE4
:103E8000F0F3F7FAFE0000004FEA400C0CF1807CE2
:103E9000BCF17E4F28BF7047B0F1C04000F00BB9B5
:103EA0000CEAD11390EA010F48BF42F480726245D8
:103EB00038BF634507D213F47F0F16D080EA0100A4
:103EC00000F00040704710B500F0AFF8097EFC3EEE
:103ED00000F005B880EA010000F00040704780EA79
:103EE000010000F0004000F0E6B812F47F0F04BFBC
:103EF0000248704780EA010000F0DDB80000C07F92
:103F0000B0FA80F310FA03F2C3F19D030AD0D90589
:103F100001EB1220530638BF704700F1010008BFC3
:103F200020F00100704700004FF47F0C1CEAD01213
:103F30001EBF1CEAD11392EA0C0F93EA0C0F00F09B
:103F4000478090EA010F48BF42F480724FF0004C66
:103F50004CEA00204CEA012102EB0302A0FB011312
:103F6000A2F50002002918BF43F001035B0028BF3F
:103F70004FEA330342EB22425FEA132C4CEBC25070
:103F80002EBFBCEB436FB2F57C0F70474FEA036C5A
:103F9000BCF1004F08BF20F00100B2F57C0F38BF24
:103FA00070470BD582F0FF0212F5803FC8BF704703
:103FB00000F1C040D8BF00F00040704700F5000C91
:103FC0005FEA4C0C48BF7047B0F1C04000F073B8D6
:103FD0000CEAD11390EA010F48BF42F480726245A7
:103FE00038BF634504D280EA010000F0004070470A
:103FF00010B500F01AF800BF8900013E00F007B8C4
:1040000000F009B85FEA410C5FEA1C6C08D080EA56
:10401000010000F050B85FEA400C5FEA1C6CF6D17A
:104020004FF00040A0F5800070470EF1020E2EF018
:10403000030E5EF8044B244204D44FEA4102B2F16D
:104040007F4F11D84FEA4003B3F17F4F0CD80ED108
:104050004FEAD07C0CEB4C0C0CF1020CB2F17F4F10
:1040600008BF4CEBD17C04E04FF0080C01E04FEAB4
:10407000D17C0CEB4C0324FA03F404F00704B4F1F4
:10408000040C06D20EEB840CBDE810404CF0010C81
:104090006047DFE80CF0070802024FF00040A0F58F
:1040A000800010BD0846420018BFD2F1807288BF60
:1040B00000F0004010BDFF2141EAD050C00570471C
:1040C00000000000000000000102030406070809C8
:1040D00000000000010203040102020304050607B8
:1040E00008090A0B0C0D0E0F1010000010410008FB
:1040F00000000020100000002801000820410008F6
:1041000010000020D0100000440100080000000052
:10411000010000001000000000127A000000000002
:04000005080000ED02
:00000001FF
